:030000000208D51E
:0C08D500787FE4F6D8FD7581070208006A
:100800001208C2C290C291C292C2A0900002E064DB
:10081000017063F0C2AF900001E0FF5480602BEFE5
:10082000540164017003D38001C39290900001E0F1
:10083000FF540264027003D38001C39291EF540409
:1008400064047003D38001C39292A290E433FF90BA
:100850000001E054804FFFA291E43325E04FFFA256
:1008600092E43325E025E04F900000F0E0F5993068
:0F08700099FDC299D2AF7F0A7E0012087F808C5B
:10087F00D3EF9400EE9400401D7DC8EDFB3395E05F
:10088F00FAD3EB9400EA6480948040031D80ECEF70
:06089F001F70DD1E80DA6F
:0108A5002230
:1008C200759850438920758DFD758BFDD28ED2AC03
:0308D200D2AF2280
:030023000208A62A
:1008A600C0E0C083C08230980CC298900001E599E0
:0C08B600F0A37401F0D082D083D0E032B7
:00000001FF
