:030000000208D320
:0C08D300787FE4F6D8FD75811502091A43
:030A8C00011075E1
:10095F00120A83120A48C290C291C292C2A0E51035
:10096F00B47207AF0A1209DB80F4E512640170EE6E
:10097F00C2AFE5115480FF6480702AE51154016401
:10098F00017003D38001C39290E511540264027089
:10099F0003D38001C39291E511540464047003D30F
:1009AF008001C39292A290E4334FFFA291E43325CA
:1009BF00E04FFFA292E43325E025E04FF50FF599C4
:0C09CF003099FDC299E4F512D2AF80927D
:1009DB00EFFD7C0064457010209002D290209102B4
:1009EB00D291209230D29222ED64474C701030900D
:1009FB0002C290309102C29130921AC29222ED64DF
:100A0B000C4C700620900ED29022ED64184C7005A1
:060A1B00209102D291229D
:100A2100D3EF9400EE9400401D7DC8EDFB3395E0BB
:100A3100FAD3EB9400EA6480948040031D80ECEFCC
:060A41001F70DD1E80DACB
:010A4700228C
:100A4800759850438920438780758DF4758BF4D24F
:060A58008ED2ACD2AF22E9
:03002300020A745A
:0F0A740030980B751075C2988599117512013263
:090A830043A881438801D2B2228C
:03000300020800F0
:10080000C0E0C0F0C083C082C0D075D000C000C0BE
:0D08100001C002C003C004C005C006C0073F
:10081D00751500C2A87F05120A5E30B205D2A80276
:10082D0008B820B2077F01120A5E80F6751300C367
:10083D00E513940474809480506A751400C3E51414
:10084D00940874809480505830B2077F01120A5E6C
:10085D0080F620B2077F01120A5E80F630B2167F55
:10086D0001120A5E0515C3E515941E74809480402F
:10087D00EBD2A8803674082513F8C000E6C313D058
:10088D0000F6C3E51594087480948040097408251A
:10089D0013F8E64480F67515007510720514809DE9
:0B08AD000513808BE50BF4650AD2A850
:1008B800D007D006D005D004D003D002D001D00094
:0B08C800D0D0D082D083D0F0D0E0323E
:100A5E00AD071FED600FE4FEEEC3940D748094801D
:050A6E0050EE0E80F3C4
:010A73002260
:1008DF0002095FE493A3F8E493A34003F68001F2C7
:1008EF0008DFF48029E493A3F85407240CC8C3331A
:1008FF00C4540F4420C8834004F456800146F6DFE9
:10090F00E4800B0102040810204080900A8CE47EE2
:10091F00019360BCA3FF543F30E509541FFEE493DD
:10092F00A360010ECF54C025E060A840B8E493A3A4
:10093F00FAE493A3F8E493A3C8C582C8CAC583CACF
:10094F00F0A3C8C582C8CAC583CADFE9DEE780BE87
:010A8F000066
:00000001FF
