:030000000209AF43
:0C09AF00787FE4F6D8FD7581140208D0B2
:1008D0001209C7120983C290C291C292C2A0AF0A84
:1008E000120916E511640170F5E51030E0145401A9
:1008F00064017003D38001C39290A290E433F50F9A
:100900008003750F60C2AF850F993099FDC299E4DD
:06091000F511D2AF80C812
:10091600EFFD7C0064457010209002D29020910279
:10092600D291209230D29222ED64474C70103090D2
:1009360002C290309102C29130921AC29222ED64A4
:100946000C4C700620900ED29022ED64184C700567
:06095600209102D2912263
:10095C00D3EF9400EE9400401D7DC8EDFB3395E081
:10096C00FAD3EB9400EA6480948040031D80ECEF92
:07097C001F70DD1E80DA226E
:10098300759850438920438780758DF4758BF4D215
:060993008ED2ACD2AF22AF
:030023000209BB14
:0C09BB00309808C298859910751101321F
:0909C70043A881438801D2B22249
:03000300020800F0
:10080000C0E0C0F0C083C082C0D075D000C000C0BE
:1008100001C002C003C004C005C006C007751400B3
:10082000C2A87F0512099930B205D2A80208B520E6
:10083000B2077F0112099980F6751200C3E5129480
:1008400004748094805067751300C3E51394087492
:10085000809480505530B2077F0112099980F620AC
:10086000B2077F0112099980F630B2167F01120992
:10087000990514C3E514941E7480948040EBD2A8AB
:10088000803374082512F8C000E6C313D000F6C305
:10089000E514940874809480400974082512F8E6E1
:1008A0004480F6751400051380A00512808EE50BB8
:1008B000F4650AD2A8D007D006D005D004D003D062
:1008C00002D001D000D0D0D082D083D0F0D0E0329E
:10099900AD071FED600FE4FEEEC3940D74809480E3
:0609A90050EE0E80F32267
:00000001FF
